{
  "_format": "hh3-artifact-1",
  "contractName": "NFTAuction",
  "sourceName": "contracts/NFTAuction.sol",
  "abi": [
    {
      "inputs": [],
      "stateMutability": "nonpayable",
      "type": "constructor"
    },
    {
      "inputs": [],
      "name": "InvalidInitialization",
      "type": "error"
    },
    {
      "inputs": [],
      "name": "NotInitializing",
      "type": "error"
    },
    {
      "inputs": [],
      "name": "ReentrancyGuardReentrantCall",
      "type": "error"
    },
    {
      "anonymous": false,
      "inputs": [
        {
          "indexed": true,
          "internalType": "uint256",
          "name": "auctionId",
          "type": "uint256"
        },
        {
          "indexed": true,
          "internalType": "address",
          "name": "bidder",
          "type": "address"
        },
        {
          "indexed": false,
          "internalType": "uint256",
          "name": "bidAmount",
          "type": "uint256"
        }
      ],
      "name": "AuctionBid",
      "type": "event"
    },
    {
      "anonymous": false,
      "inputs": [
        {
          "indexed": true,
          "internalType": "uint256",
          "name": "auctionId",
          "type": "uint256"
        }
      ],
      "name": "AuctionCancelled",
      "type": "event"
    },
    {
      "anonymous": false,
      "inputs": [
        {
          "indexed": true,
          "internalType": "uint256",
          "name": "auctionId",
          "type": "uint256"
        },
        {
          "indexed": true,
          "internalType": "address",
          "name": "seller",
          "type": "address"
        },
        {
          "indexed": true,
          "internalType": "address",
          "name": "nft",
          "type": "address"
        },
        {
          "indexed": false,
          "internalType": "uint256",
          "name": "tokenId",
          "type": "uint256"
        },
        {
          "indexed": false,
          "internalType": "uint256",
          "name": "startPrice",
          "type": "uint256"
        },
        {
          "indexed": false,
          "internalType": "uint256",
          "name": "endTime",
          "type": "uint256"
        }
      ],
      "name": "AuctionCreated",
      "type": "event"
    },
    {
      "anonymous": false,
      "inputs": [
        {
          "indexed": true,
          "internalType": "uint256",
          "name": "auctionId",
          "type": "uint256"
        },
        {
          "indexed": true,
          "internalType": "address",
          "name": "winner",
          "type": "address"
        },
        {
          "indexed": false,
          "internalType": "uint256",
          "name": "winningBid",
          "type": "uint256"
        }
      ],
      "name": "AuctionEnded",
      "type": "event"
    },
    {
      "anonymous": false,
      "inputs": [
        {
          "indexed": false,
          "internalType": "uint64",
          "name": "version",
          "type": "uint64"
        }
      ],
      "name": "Initialized",
      "type": "event"
    },
    {
      "inputs": [],
      "name": "admin",
      "outputs": [
        {
          "internalType": "address",
          "name": "",
          "type": "address"
        }
      ],
      "stateMutability": "view",
      "type": "function"
    },
    {
      "inputs": [],
      "name": "auctionId",
      "outputs": [
        {
          "internalType": "uint256",
          "name": "",
          "type": "uint256"
        }
      ],
      "stateMutability": "view",
      "type": "function"
    },
    {
      "inputs": [
        {
          "internalType": "uint256",
          "name": "",
          "type": "uint256"
        }
      ],
      "name": "auctions",
      "outputs": [
        {
          "internalType": "contract IERC721",
          "name": "nft",
          "type": "address"
        },
        {
          "internalType": "uint256",
          "name": "nftId",
          "type": "uint256"
        },
        {
          "internalType": "address",
          "name": "seller",
          "type": "address"
        },
        {
          "internalType": "uint256",
          "name": "startPriceInDollar",
          "type": "uint256"
        },
        {
          "internalType": "uint256",
          "name": "highestBid",
          "type": "uint256"
        },
        {
          "internalType": "uint256",
          "name": "highestBidInDollar",
          "type": "uint256"
        },
        {
          "internalType": "address",
          "name": "highestBidder",
          "type": "address"
        },
        {
          "internalType": "address",
          "name": "highestBidToken",
          "type": "address"
        },
        {
          "internalType": "contract IERC20",
          "name": "paymentToken",
          "type": "address"
        },
        {
          "internalType": "uint256",
          "name": "endTime",
          "type": "uint256"
        },
        {
          "internalType": "enum NFTAuction.AuctionState",
          "name": "state",
          "type": "uint8"
        }
      ],
      "stateMutability": "view",
      "type": "function"
    },
    {
      "inputs": [
        {
          "internalType": "uint256",
          "name": "auctionId_",
          "type": "uint256"
        },
        {
          "internalType": "uint256",
          "name": "amount",
          "type": "uint256"
        }
      ],
      "name": "bid",
      "outputs": [],
      "stateMutability": "payable",
      "type": "function"
    },
    {
      "inputs": [
        {
          "internalType": "uint256",
          "name": "auctionId_",
          "type": "uint256"
        }
      ],
      "name": "cancelAuction",
      "outputs": [],
      "stateMutability": "nonpayable",
      "type": "function"
    },
    {
      "inputs": [
        {
          "internalType": "address",
          "name": "seller",
          "type": "address"
        },
        {
          "internalType": "address",
          "name": "nft",
          "type": "address"
        },
        {
          "internalType": "uint256",
          "name": "nftId",
          "type": "uint256"
        },
        {
          "internalType": "uint256",
          "name": "startPriceInDollar",
          "type": "uint256"
        },
        {
          "internalType": "uint256",
          "name": "durationDays",
          "type": "uint256"
        },
        {
          "internalType": "address",
          "name": "paymentToken",
          "type": "address"
        }
      ],
      "name": "createAuction",
      "outputs": [],
      "stateMutability": "nonpayable",
      "type": "function"
    },
    {
      "inputs": [
        {
          "internalType": "uint256",
          "name": "auctionId_",
          "type": "uint256"
        }
      ],
      "name": "endAuction",
      "outputs": [],
      "stateMutability": "nonpayable",
      "type": "function"
    },
    {
      "inputs": [
        {
          "internalType": "address",
          "name": "token",
          "type": "address"
        }
      ],
      "name": "getPriceUsd",
      "outputs": [
        {
          "internalType": "uint256",
          "name": "",
          "type": "uint256"
        }
      ],
      "stateMutability": "view",
      "type": "function"
    },
    {
      "inputs": [],
      "name": "getVersion",
      "outputs": [
        {
          "internalType": "string",
          "name": "",
          "type": "string"
        }
      ],
      "stateMutability": "pure",
      "type": "function"
    },
    {
      "inputs": [
        {
          "internalType": "uint256",
          "name": "_minBidIncrementPercent",
          "type": "uint256"
        }
      ],
      "name": "initialize",
      "outputs": [],
      "stateMutability": "nonpayable",
      "type": "function"
    },
    {
      "inputs": [],
      "name": "minBidIncrementPercent",
      "outputs": [
        {
          "internalType": "uint256",
          "name": "",
          "type": "uint256"
        }
      ],
      "stateMutability": "view",
      "type": "function"
    },
    {
      "inputs": [
        {
          "internalType": "address",
          "name": "token",
          "type": "address"
        },
        {
          "internalType": "address",
          "name": "oracle",
          "type": "address"
        }
      ],
      "name": "setTokenOracles",
      "outputs": [],
      "stateMutability": "nonpayable",
      "type": "function"
    },
    {
      "inputs": [
        {
          "internalType": "address",
          "name": "token",
          "type": "address"
        },
        {
          "internalType": "uint256",
          "name": "amount",
          "type": "uint256"
        },
        {
          "internalType": "uint256",
          "name": "decimals",
          "type": "uint256"
        }
      ],
      "name": "toUsd",
      "outputs": [
        {
          "internalType": "uint256",
          "name": "",
          "type": "uint256"
        }
      ],
      "stateMutability": "view",
      "type": "function"
    },
    {
      "inputs": [
        {
          "internalType": "address",
          "name": "",
          "type": "address"
        }
      ],
      "name": "tokenOracles",
      "outputs": [
        {
          "internalType": "address",
          "name": "",
          "type": "address"
        }
      ],
      "stateMutability": "view",
      "type": "function"
    }
  ],
  "bytecode": "0x608060405234801561000f575f5ffd5b5060017f9b779b17422d0df92223018b32b4d1fa46e071723d6817e2486d003becc55f005561003c610041565b6100f3565b7ff0c57e16840df040f15088dc2f81fe391c3923bec73e23a9662efc9c229c6a00805468010000000000000000900460ff16156100915760405163f92ee8a960e01b815260040160405180910390fd5b80546001600160401b03908116146100f05780546001600160401b0319166001600160401b0390811782556040519081527fc7f505b2f371ae2175ee4913f4499e1f2633a7b5936321eed1cdaeb6115181d29060200160405180910390a15b50565b611938806101005f395ff3fe6080604052600436106100d9575f3560e01c806396b5a7551161007c578063c4e4109e11610057578063c4e4109e146102d2578063f851a440146102f1578063fba995d914610310578063fe4b84df1461032f575f5ffd5b806396b5a75514610248578063b9a2de3a14610267578063bd49243214610286575f5ffd5b8063571a26a0116100b7578063571a26a014610160578063598647f8146101ff5780637db7c33114610214578063897a849b14610233575f5ffd5b80630d8e6e2c146100dd57806310782f8f1461011e5780634229921e14610141575b5f5ffd5b3480156100e8575f5ffd5b50604080518082018252600a81526927232a20bab1ba34b7b760b11b60208201529051610115919061143a565b60405180910390f35b348015610129575f5ffd5b5061013360015481565b604051908152602001610115565b34801561014c575f5ffd5b5061013361015b366004611483565b61034e565b34801561016b575f5ffd5b506101e861017a3660046114b5565b600260208190525f918252604090912080546001820154928201546003830154600484015460058501546006860154600787015460088801546009890154600a909901546001600160a01b039889169a99978916989697959694959385169492831693919092169160ff168b565b6040516101159b9a999897969594939291906114e0565b61021261020d366004611569565b61038a565b005b34801561021f575f5ffd5b5061021261022e366004611589565b610841565b34801561023e575f5ffd5b5061013360055481565b348015610253575f5ffd5b506102126102623660046114b5565b610c87565b348015610272575f5ffd5b506102126102813660046114b5565b610df2565b348015610291575f5ffd5b506102ba6102a03660046115ec565b60036020525f90815260409020546001600160a01b031681565b6040516001600160a01b039091168152602001610115565b3480156102dd575f5ffd5b506101336102ec3660046115ec565b61110e565b3480156102fc575f5ffd5b506004546102ba906001600160a01b031681565b34801561031b575f5ffd5b5061021261032a36600461160e565b6111ea565b34801561033a575f5ffd5b506102126103493660046114b5565b611297565b5f8061035b83600a61173c565b90505f6103678661110e565b90505f826103758388611747565b61037f919061175e565b979650505050505050565b5f82815260026020526040812090600a82015460ff1660028111156103b1576103b16114cc565b146103d75760405162461bcd60e51b81526004016103ce9061177d565b60405180910390fd5b8060090154421061041e5760405162461bcd60e51b8152602060048201526011602482015270105d58dd1a5bdb881a185cc8195b991959607a1b60448201526064016103ce565b60028101546001600160a01b031633036104895760405162461bcd60e51b815260206004820152602660248201527f53656c6c65722063616e6e6f7420626964206f6e207468656972206f776e20616044820152653ab1ba34b7b760d11b60648201526084016103ce565b5f34156104a35761049c5f34601261034e565b90506105eb565b5f83116104f25760405162461bcd60e51b815260206004820152601f60248201527f455243323020616d6f756e742063616e6e6f74206c657373207468616e20300060448201526064016103ce565b60088201546040805163313ce56760e01b815290516001600160a01b03909216915f91839163313ce567916004808201926020929091908290030181865afa158015610540573d5f5f3e3d5ffd5b505050506040513d601f19601f8201168201806040525081019061056491906117ac565b905061057482868360ff1661034e565b6040516323b872dd60e01b81529093506001600160a01b038316906323b872dd906105a790339030908a906004016117cc565b6020604051808303815f875af11580156105c3573d5f5f3e3d5ffd5b505050506040513d601f19601f820116820180604052508101906105e791906117f0565b5050505b5f82600401545f0361060257506003820154610632565b606460055484600501546106169190611747565b610620919061175e565b836005015461062f919061180f565b90505b8082101561068e5760405162461bcd60e51b815260206004820152602360248201527f426964206d757374206d65657420746865206d696e696d756d20696e6372656d604482015262195b9d60ea1b60648201526084016103ce565b60068301546001600160a01b0316158015906106b7575060068301546001600160a01b03163314155b1561079657600483015480156107945760078401546001600160a01b03166107185760068401546040516001600160a01b039091169082156108fc029083905f818181858888f19350505050158015610712573d5f5f3e3d5ffd5b50610794565b6008840154600685015460405163a9059cbb60e01b81526001600160a01b0391821660048201526024810184905291169063a9059cbb906044016020604051808303815f875af115801561076e573d5f5f3e3d5ffd5b505050506040513d601f19601f8201168201806040525081019061079291906117f0565b505b505b34156107b9573460048401556007830180546001600160a01b03191690556107e7565b6004830184905560088301546007840180546001600160a01b0319166001600160a01b039092169190911790555b6006830180546001600160a01b031916339081179091556005840183905560405183815286907fb8d756f2d1da4663767eb4d559780ace84f2f65a421a60ddcb47e8b2e5d2fd269060200160405180910390a35050505050565b6004546001600160a01b0316331461086b5760405162461bcd60e51b81526004016103ce90611822565b6001600160a01b0386166108c15760405162461bcd60e51b815260206004820152601d60248201527f53656c6c657220616464726573732063616e6e6f74206265207a65726f00000060448201526064016103ce565b6001600160a01b0385166109175760405162461bcd60e51b815260206004820152601a60248201527f4e465420616464726573732063616e6e6f74206265207a65726f00000000000060448201526064016103ce565b5f82116109665760405162461bcd60e51b815260206004820152601f60248201527f4475726174696f6e206d7573742062652067726561746572207468616e20300060448201526064016103ce565b6040516331a9108f60e11b81526004810185905285906001600160a01b038881169190831690636352211e90602401602060405180830381865afa1580156109b0573d5f5f3e3d5ffd5b505050506040513d601f19601f820116820180604052508101906109d49190611863565b6001600160a01b031614610a2a5760405162461bcd60e51b815260206004820152601760248201527f53656c6c6572206d757374206f776e20746865204e465400000000000000000060448201526064016103ce565b5f80549080610a388361187e565b91905055600181905550604051806101600160405280826001600160a01b03168152602001868152602001886001600160a01b031681526020018581526020015f81526020015f81526020015f6001600160a01b031681526020015f6001600160a01b03168152602001836001600160a01b031681526020018462015180610ac09190611747565b610aca904261180f565b81526020015f9052600180545f90815260026020818152604092839020855181546001600160a01b03199081166001600160a01b0392831617835592870151828701559386015181840180548416918616919091179055606086015160038201556080860151600482015560a0860151600582015560c0860151600682018054841691861691909117905560e0860151600782018054841691861691909117905561010086015160088201805490931694169390931790556101208401516009830155610140840151600a8301805493949193909260ff1990911691908490811115610bb857610bb86114cc565b0217905550506040516323b872dd60e01b81526001600160a01b03831691506323b872dd90610bef908a9030908a906004016117cc565b5f604051808303815f87803b158015610c06575f5ffd5b505af1158015610c18573d5f5f3e3d5ffd5b50506001545f818152600260209081526040918290206009015482518b81529182018a90528183015290516001600160a01b038b811695508c1693507f06b9e486c68303eb64052e0493f906f3d93a1b7149b6b8dcff221aebd16c35139181900360600190a450505050505050565b6004546001600160a01b03163314610cb15760405162461bcd60e51b81526004016103ce90611822565b5f81815260026020526040812090600a82015460ff166002811115610cd857610cd86114cc565b14610cf55760405162461bcd60e51b81526004016103ce9061177d565b60068101546001600160a01b0316610d485760405162461bcd60e51b8152602060048201526016602482015275105d58dd1a5bdb8818d85b9b9bdd0818d85b9b98d95b60521b60448201526064016103ce565b600a8101805460ff1916600290811790915581549082015460018301546040516323b872dd60e01b81526001600160a01b03938416936323b872dd93610d9793309392909116916004016117cc565b5f604051808303815f87803b158015610dae575f5ffd5b505af1158015610dc0573d5f5f3e3d5ffd5b50506040518492507f2809c7e17bf978fbc7194c0a694b638c4215e9140cacc6c38ca36010b45697df91505f90a25050565b610dfa61139e565b5f81815260026020526040812090600a82015460ff166002811115610e2157610e216114cc565b14610e3e5760405162461bcd60e51b81526004016103ce9061177d565b8060090154421015610e8a5760405162461bcd60e51b8152602060048201526015602482015274105d58dd1a5bdb881a185cc81b9bdd08195b991959605a1b60448201526064016103ce565b600a8101805460ff1916600117905560068101546001600160a01b03161561103e578054600682015460018301546040516323b872dd60e01b81526001600160a01b03938416936323b872dd93610eea93309392909116916004016117cc565b5f604051808303815f87803b158015610f01575f5ffd5b505af1158015610f13573d5f5f3e3d5ffd5b5050505060078101546001600160a01b0316610f6c57600281015460048201546040516001600160a01b039092169181156108fc0291905f818181858888f19350505050158015610f66573d5f5f3e3d5ffd5b50610fee565b6007810154600282015460048084015460405163a9059cbb60e01b81526001600160a01b0393841692810192909252602482015291169063a9059cbb906044016020604051808303815f875af1158015610fc8573d5f5f3e3d5ffd5b505050506040513d601f19601f82011682018060405250810190610fec91906117f0565b505b600681015460048201546040519081526001600160a01b039091169083907fd2aa34a4fdbbc6dff6a3e56f46e0f3ae2a31d7785ff3487aa5c95c642acea5019060200160405180910390a36110e1565b8054600282015460018301546040516323b872dd60e01b81526001600160a01b03938416936323b872dd9361107c93309392909116916004016117cc565b5f604051808303815f87803b158015611093575f5ffd5b505af11580156110a5573d5f5f3e3d5ffd5b50506040515f80825292508491507fd2aa34a4fdbbc6dff6a3e56f46e0f3ae2a31d7785ff3487aa5c95c642acea5019060200160405180910390a35b5061110b60017f9b779b17422d0df92223018b32b4d1fa46e071723d6817e2486d003becc55f0055565b50565b6001600160a01b038082165f90815260036020526040812054909116806111775760405162461bcd60e51b815260206004820152601d60248201527f4f7261636c65206e6f742073657420666f72207468697320746f6b656e00000060448201526064016103ce565b5f8190505f816001600160a01b031663feaf968c6040518163ffffffff1660e01b815260040160a060405180830381865afa1580156111b8573d5f5f3e3d5ffd5b505050506040513d601f19601f820116820180604052508101906111dc91906118b4565b509198975050505050505050565b6004546001600160a01b031633146112145760405162461bcd60e51b81526004016103ce90611822565b6001600160a01b03811661126a5760405162461bcd60e51b815260206004820152601d60248201527f4f7261636c6520616464726573732063616e6e6f74206265207a65726f00000060448201526064016103ce565b6001600160a01b039182165f90815260036020526040902080546001600160a01b03191691909216179055565b5f6112a06113cc565b805490915060ff600160401b820416159067ffffffffffffffff165f811580156112c75750825b90505f8267ffffffffffffffff1660011480156112e35750303b155b9050811580156112f1575080155b1561130f5760405163f92ee8a960e01b815260040160405180910390fd5b845467ffffffffffffffff19166001178555831561133957845460ff60401b1916600160401b1785555b600480546001600160a01b031916331790556005869055831561139657845460ff60401b19168555604051600181527fc7f505b2f371ae2175ee4913f4499e1f2633a7b5936321eed1cdaeb6115181d29060200160405180910390a15b505050505050565b6113a66113f6565b60027f9b779b17422d0df92223018b32b4d1fa46e071723d6817e2486d003becc55f0055565b5f807ff0c57e16840df040f15088dc2f81fe391c3923bec73e23a9662efc9c229c6a005b92915050565b7f9b779b17422d0df92223018b32b4d1fa46e071723d6817e2486d003becc55f005460020361143857604051633ee5aeb560e01b815260040160405180910390fd5b565b602081525f82518060208401528060208501604085015e5f604082850101526040601f19601f83011684010191505092915050565b6001600160a01b038116811461110b575f5ffd5b5f5f5f60608486031215611495575f5ffd5b83356114a08161146f565b95602085013595506040909401359392505050565b5f602082840312156114c5575f5ffd5b5035919050565b634e487b7160e01b5f52602160045260245ffd5b6001600160a01b038c81168252602082018c90528a81166040830152606082018a90526080820189905260a0820188905286811660c083015285811660e08301528416610100820152610120810183905261016081016003831061155257634e487b7160e01b5f52602160045260245ffd5b826101408301529c9b505050505050505050505050565b5f5f6040838503121561157a575f5ffd5b50508035926020909101359150565b5f5f5f5f5f5f60c0878903121561159e575f5ffd5b86356115a98161146f565b955060208701356115b98161146f565b945060408701359350606087013592506080870135915060a08701356115de8161146f565b809150509295509295509295565b5f602082840312156115fc575f5ffd5b81356116078161146f565b9392505050565b5f5f6040838503121561161f575f5ffd5b823561162a8161146f565b9150602083013561163a8161146f565b809150509250929050565b634e487b7160e01b5f52601160045260245ffd5b6001815b60018411156116945780850481111561167857611678611645565b600184161561168657908102905b60019390931c92800261165d565b935093915050565b5f826116aa575060016113f0565b816116b657505f6113f0565b81600181146116cc57600281146116d6576116f2565b60019150506113f0565b60ff8411156116e7576116e7611645565b50506001821b6113f0565b5060208310610133831016604e8410600b8410161715611715575081810a6113f0565b6117215f198484611659565b805f190482111561173457611734611645565b029392505050565b5f611607838361169c565b80820281158282048414176113f0576113f0611645565b5f8261177857634e487b7160e01b5f52601260045260245ffd5b500490565b60208082526015908201527441756374696f6e206973206e6f742061637469766560581b604082015260600190565b5f602082840312156117bc575f5ffd5b815160ff81168114611607575f5ffd5b6001600160a01b039384168152919092166020820152604081019190915260600190565b5f60208284031215611800575f5ffd5b81518015158114611607575f5ffd5b808201808211156113f0576113f0611645565b60208082526021908201527f4f6e6c792061646d696e2063616e2063616c6c20746869732066756e6374696f6040820152603760f91b606082015260800190565b5f60208284031215611873575f5ffd5b81516116078161146f565b5f6001820161188f5761188f611645565b5060010190565b805169ffffffffffffffffffff811681146118af575f5ffd5b919050565b5f5f5f5f5f60a086880312156118c8575f5ffd5b6118d186611896565b602087015160408801516060890151929750909550935091506118f660808701611896565b9050929550929590935056fea2646970667358221220613d5d3d72edc491b891b85e0bea1157b3ba01f36c1a1486d6c54b2059f08dd264736f6c634300081c0033",
  "linkReferences": {},
  "deployedLinkReferences": {},
  "immutableReferences": {},
  "inputSourceName": "project/contracts/NFTAuction.sol",
  "buildInfoId": "solc-0_8_28-d799d981bf99e4bfdea7cd62c18048f430f335f1"
}