{
  "_format": "hh3-artifact-1",
  "contractName": "NFTAuctionV2",
  "sourceName": "contracts/NFTAuctionV2.sol",
  "abi": [
    {
      "inputs": [],
      "name": "InvalidInitialization",
      "type": "error"
    },
    {
      "inputs": [],
      "name": "NotInitializing",
      "type": "error"
    },
    {
      "inputs": [],
      "name": "ReentrancyGuardReentrantCall",
      "type": "error"
    },
    {
      "anonymous": false,
      "inputs": [
        {
          "indexed": true,
          "internalType": "uint256",
          "name": "auctionId",
          "type": "uint256"
        },
        {
          "indexed": true,
          "internalType": "address",
          "name": "bidder",
          "type": "address"
        },
        {
          "indexed": false,
          "internalType": "uint256",
          "name": "bidAmount",
          "type": "uint256"
        }
      ],
      "name": "AuctionBid",
      "type": "event"
    },
    {
      "anonymous": false,
      "inputs": [
        {
          "indexed": true,
          "internalType": "uint256",
          "name": "auctionId",
          "type": "uint256"
        }
      ],
      "name": "AuctionCancelled",
      "type": "event"
    },
    {
      "anonymous": false,
      "inputs": [
        {
          "indexed": true,
          "internalType": "uint256",
          "name": "auctionId",
          "type": "uint256"
        },
        {
          "indexed": true,
          "internalType": "address",
          "name": "seller",
          "type": "address"
        },
        {
          "indexed": true,
          "internalType": "address",
          "name": "nft",
          "type": "address"
        },
        {
          "indexed": false,
          "internalType": "uint256",
          "name": "tokenId",
          "type": "uint256"
        },
        {
          "indexed": false,
          "internalType": "uint256",
          "name": "startPrice",
          "type": "uint256"
        },
        {
          "indexed": false,
          "internalType": "uint256",
          "name": "endTime",
          "type": "uint256"
        }
      ],
      "name": "AuctionCreated",
      "type": "event"
    },
    {
      "anonymous": false,
      "inputs": [
        {
          "indexed": true,
          "internalType": "uint256",
          "name": "auctionId",
          "type": "uint256"
        },
        {
          "indexed": true,
          "internalType": "address",
          "name": "winner",
          "type": "address"
        },
        {
          "indexed": false,
          "internalType": "uint256",
          "name": "winningBid",
          "type": "uint256"
        }
      ],
      "name": "AuctionEnded",
      "type": "event"
    },
    {
      "anonymous": false,
      "inputs": [
        {
          "indexed": false,
          "internalType": "uint64",
          "name": "version",
          "type": "uint64"
        }
      ],
      "name": "Initialized",
      "type": "event"
    },
    {
      "inputs": [],
      "name": "admin",
      "outputs": [
        {
          "internalType": "address",
          "name": "",
          "type": "address"
        }
      ],
      "stateMutability": "view",
      "type": "function"
    },
    {
      "inputs": [],
      "name": "auctionId",
      "outputs": [
        {
          "internalType": "uint256",
          "name": "",
          "type": "uint256"
        }
      ],
      "stateMutability": "view",
      "type": "function"
    },
    {
      "inputs": [
        {
          "internalType": "uint256",
          "name": "",
          "type": "uint256"
        }
      ],
      "name": "auctions",
      "outputs": [
        {
          "internalType": "contract IERC721",
          "name": "nft",
          "type": "address"
        },
        {
          "internalType": "uint256",
          "name": "nftId",
          "type": "uint256"
        },
        {
          "internalType": "address",
          "name": "seller",
          "type": "address"
        },
        {
          "internalType": "uint256",
          "name": "startPriceInDollar",
          "type": "uint256"
        },
        {
          "internalType": "uint256",
          "name": "highestBid",
          "type": "uint256"
        },
        {
          "internalType": "uint256",
          "name": "highestBidInDollar",
          "type": "uint256"
        },
        {
          "internalType": "address",
          "name": "highestBidder",
          "type": "address"
        },
        {
          "internalType": "address",
          "name": "highestBidToken",
          "type": "address"
        },
        {
          "internalType": "contract IERC20",
          "name": "paymentToken",
          "type": "address"
        },
        {
          "internalType": "uint256",
          "name": "endTime",
          "type": "uint256"
        },
        {
          "internalType": "enum NFTAuction.AuctionState",
          "name": "state",
          "type": "uint8"
        }
      ],
      "stateMutability": "view",
      "type": "function"
    },
    {
      "inputs": [
        {
          "internalType": "uint256",
          "name": "auctionId_",
          "type": "uint256"
        },
        {
          "internalType": "uint256",
          "name": "amount",
          "type": "uint256"
        }
      ],
      "name": "bid",
      "outputs": [],
      "stateMutability": "payable",
      "type": "function"
    },
    {
      "inputs": [
        {
          "internalType": "uint256",
          "name": "auctionId_",
          "type": "uint256"
        }
      ],
      "name": "cancelAuction",
      "outputs": [],
      "stateMutability": "nonpayable",
      "type": "function"
    },
    {
      "inputs": [
        {
          "internalType": "address",
          "name": "seller",
          "type": "address"
        },
        {
          "internalType": "address",
          "name": "nft",
          "type": "address"
        },
        {
          "internalType": "uint256",
          "name": "nftId",
          "type": "uint256"
        },
        {
          "internalType": "uint256",
          "name": "startPriceInDollar",
          "type": "uint256"
        },
        {
          "internalType": "uint256",
          "name": "durationDays",
          "type": "uint256"
        },
        {
          "internalType": "address",
          "name": "paymentToken",
          "type": "address"
        }
      ],
      "name": "createAuction",
      "outputs": [],
      "stateMutability": "nonpayable",
      "type": "function"
    },
    {
      "inputs": [
        {
          "internalType": "uint256",
          "name": "auctionId_",
          "type": "uint256"
        }
      ],
      "name": "endAuction",
      "outputs": [],
      "stateMutability": "nonpayable",
      "type": "function"
    },
    {
      "inputs": [
        {
          "internalType": "address",
          "name": "token",
          "type": "address"
        }
      ],
      "name": "getPriceUsd",
      "outputs": [
        {
          "internalType": "uint256",
          "name": "",
          "type": "uint256"
        }
      ],
      "stateMutability": "view",
      "type": "function"
    },
    {
      "inputs": [],
      "name": "getVersion",
      "outputs": [
        {
          "internalType": "string",
          "name": "",
          "type": "string"
        }
      ],
      "stateMutability": "pure",
      "type": "function"
    },
    {
      "inputs": [
        {
          "internalType": "uint256",
          "name": "_minBidIncrementPercent",
          "type": "uint256"
        }
      ],
      "name": "initialize",
      "outputs": [],
      "stateMutability": "nonpayable",
      "type": "function"
    },
    {
      "inputs": [],
      "name": "minBidIncrementPercent",
      "outputs": [
        {
          "internalType": "uint256",
          "name": "",
          "type": "uint256"
        }
      ],
      "stateMutability": "view",
      "type": "function"
    },
    {
      "inputs": [],
      "name": "newFunction",
      "outputs": [
        {
          "internalType": "string",
          "name": "",
          "type": "string"
        }
      ],
      "stateMutability": "pure",
      "type": "function"
    },
    {
      "inputs": [
        {
          "internalType": "address",
          "name": "token",
          "type": "address"
        },
        {
          "internalType": "address",
          "name": "oracle",
          "type": "address"
        }
      ],
      "name": "setTokenOracles",
      "outputs": [],
      "stateMutability": "nonpayable",
      "type": "function"
    },
    {
      "inputs": [
        {
          "internalType": "address",
          "name": "token",
          "type": "address"
        },
        {
          "internalType": "uint256",
          "name": "amount",
          "type": "uint256"
        },
        {
          "internalType": "uint256",
          "name": "decimals",
          "type": "uint256"
        }
      ],
      "name": "toUsd",
      "outputs": [
        {
          "internalType": "uint256",
          "name": "",
          "type": "uint256"
        }
      ],
      "stateMutability": "view",
      "type": "function"
    },
    {
      "inputs": [
        {
          "internalType": "address",
          "name": "",
          "type": "address"
        }
      ],
      "name": "tokenOracles",
      "outputs": [
        {
          "internalType": "address",
          "name": "",
          "type": "address"
        }
      ],
      "stateMutability": "view",
      "type": "function"
    }
  ],
  "bytecode": "0x608060405234801561000f575f5ffd5b5060017f9b779b17422d0df92223018b32b4d1fa46e071723d6817e2486d003becc55f005561003c610041565b6100f3565b7ff0c57e16840df040f15088dc2f81fe391c3923bec73e23a9662efc9c229c6a00805468010000000000000000900460ff16156100915760405163f92ee8a960e01b815260040160405180910390fd5b80546001600160401b03908116146100f05780546001600160401b0319166001600160401b0390811782556040519081527fc7f505b2f371ae2175ee4913f4499e1f2633a7b5936321eed1cdaeb6115181d29060200160405180910390a15b50565b611986806101005f395ff3fe6080604052600436106100e4575f3560e01c8063897a849b11610087578063c4e4109e11610057578063c4e4109e14610320578063f851a4401461033f578063fba995d91461035e578063fe4b84df1461037d575f5ffd5b8063897a849b1461028157806396b5a75514610296578063b9a2de3a146102b5578063bd492432146102d4575f5ffd5b80634229921e116100c25780634229921e1461018f578063571a26a0146101ae578063598647f81461024d5780637db7c33114610262575f5ffd5b80630d8e6e2c146100e857806310782f8f1461012e5780631b28d63e14610151575b5f5ffd5b3480156100f3575f5ffd5b5060408051808201909152600c81526b27232a20bab1ba34b7b72b1960a11b60208201525b6040516101259190611488565b60405180910390f35b348015610139575f5ffd5b5061014360015481565b604051908152602001610125565b34801561015c575f5ffd5b506040805180820190915260168152752a3434b99034b99030903732bb90333ab731ba34b7b760511b6020820152610118565b34801561019a575f5ffd5b506101436101a93660046114d1565b61039c565b3480156101b9575f5ffd5b506102366101c8366004611503565b600260208190525f918252604090912080546001820154928201546003830154600484015460058501546006860154600787015460088801546009890154600a909901546001600160a01b039889169a99978916989697959694959385169492831693919092169160ff168b565b6040516101259b9a9998979695949392919061152e565b61026061025b3660046115b7565b6103d8565b005b34801561026d575f5ffd5b5061026061027c3660046115d7565b61088f565b34801561028c575f5ffd5b5061014360055481565b3480156102a1575f5ffd5b506102606102b0366004611503565b610cd5565b3480156102c0575f5ffd5b506102606102cf366004611503565b610e40565b3480156102df575f5ffd5b506103086102ee36600461163a565b60036020525f90815260409020546001600160a01b031681565b6040516001600160a01b039091168152602001610125565b34801561032b575f5ffd5b5061014361033a36600461163a565b61115c565b34801561034a575f5ffd5b50600454610308906001600160a01b031681565b348015610369575f5ffd5b5061026061037836600461165c565b611238565b348015610388575f5ffd5b50610260610397366004611503565b6112e5565b5f806103a983600a61178a565b90505f6103b58661115c565b90505f826103c38388611795565b6103cd91906117ac565b979650505050505050565b5f82815260026020526040812090600a82015460ff1660028111156103ff576103ff61151a565b146104255760405162461bcd60e51b815260040161041c906117cb565b60405180910390fd5b8060090154421061046c5760405162461bcd60e51b8152602060048201526011602482015270105d58dd1a5bdb881a185cc8195b991959607a1b604482015260640161041c565b60028101546001600160a01b031633036104d75760405162461bcd60e51b815260206004820152602660248201527f53656c6c65722063616e6e6f7420626964206f6e207468656972206f776e20616044820152653ab1ba34b7b760d11b606482015260840161041c565b5f34156104f1576104ea5f34601261039c565b9050610639565b5f83116105405760405162461bcd60e51b815260206004820152601f60248201527f455243323020616d6f756e742063616e6e6f74206c657373207468616e203000604482015260640161041c565b60088201546040805163313ce56760e01b815290516001600160a01b03909216915f91839163313ce567916004808201926020929091908290030181865afa15801561058e573d5f5f3e3d5ffd5b505050506040513d601f19601f820116820180604052508101906105b291906117fa565b90506105c282868360ff1661039c565b6040516323b872dd60e01b81529093506001600160a01b038316906323b872dd906105f590339030908a9060040161181a565b6020604051808303815f875af1158015610611573d5f5f3e3d5ffd5b505050506040513d601f19601f82011682018060405250810190610635919061183e565b5050505b5f82600401545f0361065057506003820154610680565b606460055484600501546106649190611795565b61066e91906117ac565b836005015461067d919061185d565b90505b808210156106dc5760405162461bcd60e51b815260206004820152602360248201527f426964206d757374206d65657420746865206d696e696d756d20696e6372656d604482015262195b9d60ea1b606482015260840161041c565b60068301546001600160a01b031615801590610705575060068301546001600160a01b03163314155b156107e457600483015480156107e25760078401546001600160a01b03166107665760068401546040516001600160a01b039091169082156108fc029083905f818181858888f19350505050158015610760573d5f5f3e3d5ffd5b506107e2565b6008840154600685015460405163a9059cbb60e01b81526001600160a01b0391821660048201526024810184905291169063a9059cbb906044016020604051808303815f875af11580156107bc573d5f5f3e3d5ffd5b505050506040513d601f19601f820116820180604052508101906107e0919061183e565b505b505b3415610807573460048401556007830180546001600160a01b0319169055610835565b6004830184905560088301546007840180546001600160a01b0319166001600160a01b039092169190911790555b6006830180546001600160a01b031916339081179091556005840183905560405183815286907fb8d756f2d1da4663767eb4d559780ace84f2f65a421a60ddcb47e8b2e5d2fd269060200160405180910390a35050505050565b6004546001600160a01b031633146108b95760405162461bcd60e51b815260040161041c90611870565b6001600160a01b03861661090f5760405162461bcd60e51b815260206004820152601d60248201527f53656c6c657220616464726573732063616e6e6f74206265207a65726f000000604482015260640161041c565b6001600160a01b0385166109655760405162461bcd60e51b815260206004820152601a60248201527f4e465420616464726573732063616e6e6f74206265207a65726f000000000000604482015260640161041c565b5f82116109b45760405162461bcd60e51b815260206004820152601f60248201527f4475726174696f6e206d7573742062652067726561746572207468616e203000604482015260640161041c565b6040516331a9108f60e11b81526004810185905285906001600160a01b038881169190831690636352211e90602401602060405180830381865afa1580156109fe573d5f5f3e3d5ffd5b505050506040513d601f19601f82011682018060405250810190610a2291906118b1565b6001600160a01b031614610a785760405162461bcd60e51b815260206004820152601760248201527f53656c6c6572206d757374206f776e20746865204e4654000000000000000000604482015260640161041c565b5f80549080610a86836118cc565b91905055600181905550604051806101600160405280826001600160a01b03168152602001868152602001886001600160a01b031681526020018581526020015f81526020015f81526020015f6001600160a01b031681526020015f6001600160a01b03168152602001836001600160a01b031681526020018462015180610b0e9190611795565b610b18904261185d565b81526020015f9052600180545f90815260026020818152604092839020855181546001600160a01b03199081166001600160a01b0392831617835592870151828701559386015181840180548416918616919091179055606086015160038201556080860151600482015560a0860151600582015560c0860151600682018054841691861691909117905560e0860151600782018054841691861691909117905561010086015160088201805490931694169390931790556101208401516009830155610140840151600a8301805493949193909260ff1990911691908490811115610c0657610c0661151a565b0217905550506040516323b872dd60e01b81526001600160a01b03831691506323b872dd90610c3d908a9030908a9060040161181a565b5f604051808303815f87803b158015610c54575f5ffd5b505af1158015610c66573d5f5f3e3d5ffd5b50506001545f818152600260209081526040918290206009015482518b81529182018a90528183015290516001600160a01b038b811695508c1693507f06b9e486c68303eb64052e0493f906f3d93a1b7149b6b8dcff221aebd16c35139181900360600190a450505050505050565b6004546001600160a01b03163314610cff5760405162461bcd60e51b815260040161041c90611870565b5f81815260026020526040812090600a82015460ff166002811115610d2657610d2661151a565b14610d435760405162461bcd60e51b815260040161041c906117cb565b60068101546001600160a01b0316610d965760405162461bcd60e51b8152602060048201526016602482015275105d58dd1a5bdb8818d85b9b9bdd0818d85b9b98d95b60521b604482015260640161041c565b600a8101805460ff1916600290811790915581549082015460018301546040516323b872dd60e01b81526001600160a01b03938416936323b872dd93610de5933093929091169160040161181a565b5f604051808303815f87803b158015610dfc575f5ffd5b505af1158015610e0e573d5f5f3e3d5ffd5b50506040518492507f2809c7e17bf978fbc7194c0a694b638c4215e9140cacc6c38ca36010b45697df91505f90a25050565b610e486113ec565b5f81815260026020526040812090600a82015460ff166002811115610e6f57610e6f61151a565b14610e8c5760405162461bcd60e51b815260040161041c906117cb565b8060090154421015610ed85760405162461bcd60e51b8152602060048201526015602482015274105d58dd1a5bdb881a185cc81b9bdd08195b991959605a1b604482015260640161041c565b600a8101805460ff1916600117905560068101546001600160a01b03161561108c578054600682015460018301546040516323b872dd60e01b81526001600160a01b03938416936323b872dd93610f38933093929091169160040161181a565b5f604051808303815f87803b158015610f4f575f5ffd5b505af1158015610f61573d5f5f3e3d5ffd5b5050505060078101546001600160a01b0316610fba57600281015460048201546040516001600160a01b039092169181156108fc0291905f818181858888f19350505050158015610fb4573d5f5f3e3d5ffd5b5061103c565b6007810154600282015460048084015460405163a9059cbb60e01b81526001600160a01b0393841692810192909252602482015291169063a9059cbb906044016020604051808303815f875af1158015611016573d5f5f3e3d5ffd5b505050506040513d601f19601f8201168201806040525081019061103a919061183e565b505b600681015460048201546040519081526001600160a01b039091169083907fd2aa34a4fdbbc6dff6a3e56f46e0f3ae2a31d7785ff3487aa5c95c642acea5019060200160405180910390a361112f565b8054600282015460018301546040516323b872dd60e01b81526001600160a01b03938416936323b872dd936110ca933093929091169160040161181a565b5f604051808303815f87803b1580156110e1575f5ffd5b505af11580156110f3573d5f5f3e3d5ffd5b50506040515f80825292508491507fd2aa34a4fdbbc6dff6a3e56f46e0f3ae2a31d7785ff3487aa5c95c642acea5019060200160405180910390a35b5061115960017f9b779b17422d0df92223018b32b4d1fa46e071723d6817e2486d003becc55f0055565b50565b6001600160a01b038082165f90815260036020526040812054909116806111c55760405162461bcd60e51b815260206004820152601d60248201527f4f7261636c65206e6f742073657420666f72207468697320746f6b656e000000604482015260640161041c565b5f8190505f816001600160a01b031663feaf968c6040518163ffffffff1660e01b815260040160a060405180830381865afa158015611206573d5f5f3e3d5ffd5b505050506040513d601f19601f8201168201806040525081019061122a9190611902565b509198975050505050505050565b6004546001600160a01b031633146112625760405162461bcd60e51b815260040161041c90611870565b6001600160a01b0381166112b85760405162461bcd60e51b815260206004820152601d60248201527f4f7261636c6520616464726573732063616e6e6f74206265207a65726f000000604482015260640161041c565b6001600160a01b039182165f90815260036020526040902080546001600160a01b03191691909216179055565b5f6112ee61141a565b805490915060ff600160401b820416159067ffffffffffffffff165f811580156113155750825b90505f8267ffffffffffffffff1660011480156113315750303b155b90508115801561133f575080155b1561135d5760405163f92ee8a960e01b815260040160405180910390fd5b845467ffffffffffffffff19166001178555831561138757845460ff60401b1916600160401b1785555b600480546001600160a01b03191633179055600586905583156113e457845460ff60401b19168555604051600181527fc7f505b2f371ae2175ee4913f4499e1f2633a7b5936321eed1cdaeb6115181d29060200160405180910390a15b505050505050565b6113f4611444565b60027f9b779b17422d0df92223018b32b4d1fa46e071723d6817e2486d003becc55f0055565b5f807ff0c57e16840df040f15088dc2f81fe391c3923bec73e23a9662efc9c229c6a005b92915050565b7f9b779b17422d0df92223018b32b4d1fa46e071723d6817e2486d003becc55f005460020361148657604051633ee5aeb560e01b815260040160405180910390fd5b565b602081525f82518060208401528060208501604085015e5f604082850101526040601f19601f83011684010191505092915050565b6001600160a01b0381168114611159575f5ffd5b5f5f5f606084860312156114e3575f5ffd5b83356114ee816114bd565b95602085013595506040909401359392505050565b5f60208284031215611513575f5ffd5b5035919050565b634e487b7160e01b5f52602160045260245ffd5b6001600160a01b038c81168252602082018c90528a81166040830152606082018a90526080820189905260a0820188905286811660c083015285811660e0830152841661010082015261012081018390526101608101600383106115a057634e487b7160e01b5f52602160045260245ffd5b826101408301529c9b505050505050505050505050565b5f5f604083850312156115c8575f5ffd5b50508035926020909101359150565b5f5f5f5f5f5f60c087890312156115ec575f5ffd5b86356115f7816114bd565b95506020870135611607816114bd565b945060408701359350606087013592506080870135915060a087013561162c816114bd565b809150509295509295509295565b5f6020828403121561164a575f5ffd5b8135611655816114bd565b9392505050565b5f5f6040838503121561166d575f5ffd5b8235611678816114bd565b91506020830135611688816114bd565b809150509250929050565b634e487b7160e01b5f52601160045260245ffd5b6001815b60018411156116e2578085048111156116c6576116c6611693565b60018416156116d457908102905b60019390931c9280026116ab565b935093915050565b5f826116f85750600161143e565b8161170457505f61143e565b816001811461171a576002811461172457611740565b600191505061143e565b60ff84111561173557611735611693565b50506001821b61143e565b5060208310610133831016604e8410600b8410161715611763575081810a61143e565b61176f5f1984846116a7565b805f190482111561178257611782611693565b029392505050565b5f61165583836116ea565b808202811582820484141761143e5761143e611693565b5f826117c657634e487b7160e01b5f52601260045260245ffd5b500490565b60208082526015908201527441756374696f6e206973206e6f742061637469766560581b604082015260600190565b5f6020828403121561180a575f5ffd5b815160ff81168114611655575f5ffd5b6001600160a01b039384168152919092166020820152604081019190915260600190565b5f6020828403121561184e575f5ffd5b81518015158114611655575f5ffd5b8082018082111561143e5761143e611693565b60208082526021908201527f4f6e6c792061646d696e2063616e2063616c6c20746869732066756e6374696f6040820152603760f91b606082015260800190565b5f602082840312156118c1575f5ffd5b8151611655816114bd565b5f600182016118dd576118dd611693565b5060010190565b805169ffffffffffffffffffff811681146118fd575f5ffd5b919050565b5f5f5f5f5f60a08688031215611916575f5ffd5b61191f866118e4565b60208701516040880151606089015192975090955093509150611944608087016118e4565b9050929550929590935056fea2646970667358221220d744e59b836f898bddbbbd308c6636ba8c0d7983ebaf46a8d8f3979a19a0f8e464736f6c634300081c0033",
  "linkReferences": {},
  "deployedLinkReferences": {},
  "immutableReferences": {},
  "inputSourceName": "project/contracts/NFTAuctionV2.sol",
  "buildInfoId": "solc-0_8_28-ac5867475d960758d95fe3a494e8ba01d062b296"
}